{
    "txid": "3064bbb8995569e00a5e52edc96ced7c070454c930723a53ae0ce8789d74478a",
    "hash": "3064bbb8995569e00a5e52edc96ced7c070454c930723a53ae0ce8789d74478a",
    "version": 1,
    "size": 85,
    "vsize": 85,
    "locktime": 0,
    "vin": [
        {
            "txid": "4d49a71ec9da436f71ec4ee231d04f292a29cd316f598bb7068feccabdc59485",
            "vout": 0,
            "scriptSig": {
                "asm": "",
                "hex": ""
            },
            "sequence": 4294967295
        }
    ],
    "vout": [
        {
            "value": 0.00100000,
            "n": 0,
            "scriptPubKey": {
                "asm": "OP_DUP OP_HASH160 65a16059864a2fdbc7c99a4723a8395bc6f188eb OP_EQUALVERIFY OP_CHECKSIG",
                "hex": "76a91465a16059864a2fdbc7c99a4723a8395bc6f188eb88ac",
                "reqSigs": 1,
                "type": "pubkeyhash",
                "addresses": [
                    "MHAXoRyxuYLNNME44GgeMpdYrguTbbR9xu"
                ]
            }
        }
    ],
    "hex": "01000000018594c5bdcaec8f06b78b596f31cd292a294fd031e24eec716f43dac91ea7494d0000000000ffffffff01a0860100000000001976a91465a16059864a2fdbc7c99a4723a8395bc6f188eb88ac00000000"
}
