{
    "txid": "c45210ee58b52e207cb755f85b99d19dd332a8d2fcf4a479b86d715980ad09fa",
    "hash": "c45210ee58b52e207cb755f85b99d19dd332a8d2fcf4a479b86d715980ad09fa",
    "version": 2,
    "size": 201,
    "vsize": 201,
    "locktime": 0,
    "vin": [
        {
            "txid": "5897de6bd6027a475eadd57019d4e6872c396d0716c4875a5f1a6fcfdf385c1f",
            "vout": 0,
            "scriptSig": {
                "asm": "",
                "hex": ""
            },
            "sequence": 4294967295
        },
        {
            "txid": "bf829c6bcf84579331337659d31f89dfd138f7f7785802d5501c92333145ca7c",
            "vout": 18,
            "scriptSig": {
                "asm": "",
                "hex": ""
            },
            "sequence": 4294967295
        },
        {
            "txid": "22a6f904655d53ae2ff70e701a0bbd90aa3975c0f40bfc6cc996a9049e31cdfc",
            "vout": 1,
            "scriptSig": {
                "asm": "",
                "hex": ""
            },
            "sequence": 4294967295
        }
    ],
    "vout": [
        {
            "value": 0.18000000,
            "n": 0,
            "scriptPubKey": {
                "asm": "OP_DUP OP_HASH160 65a16059864a2fdbc7c99a4723a8395bc6f188eb OP_EQUALVERIFY OP_CHECKSIG",
                "hex": "76a91465a16059864a2fdbc7c99a4723a8395bc6f188eb88ac",
                "reqSigs": 1,
                "type": "pubkeyhash",
                "addresses": [
                    "MHAXoRyxuYLNNME44GgeMpdYrguTbbR9xu"
                ]
            }
        },
        {
            "value": 4.00000000,
            "n": 1,
            "scriptPubKey": {
                "asm": "OP_DUP OP_HASH160 6d23156cbbdcc82a5a47eee4c2c7c583c18b6bf4 OP_EQUALVERIFY OP_CHECKSIG",
                "hex": "76a9146d23156cbbdcc82a5a47eee4c2c7c583c18b6bf488ac",
                "reqSigs": 1,
                "type": "pubkeyhash",
                "addresses": [
                    "MHrDuznzchLXmhS49vJfoZADqbDcdLDmFj"
                ]
            }
        }
    ],
    "hex": "02000000031f5c38dfcf6f1a5f5a87c416076d392c87e6d41970d5ad5e477a02d66bde97580000000000ffffffff7cca453133921c50d5025878f7f738d1df891fd359763331935784cf6b9c82bf1200000000fffffffffccd319e04a996c96cfc0bf4c07539aa90bd0b1a700ef72fae535d6504f9a6220100000000ffffffff0280a81201000000001976a91465a16059864a2fdbc7c99a4723a8395bc6f188eb88ac0084d717000000001976a9146d23156cbbdcc82a5a47eee4c2c7c583c18b6bf488ac00000000"
}
