{
    "txid": "f3044002da6c06aabaa2784598659797343013320b726c58161f79bd06455a92",
    "hash": "f3044002da6c06aabaa2784598659797343013320b726c58161f79bd06455a92",
    "version": 2,
    "size": 85,
    "vsize": 85,
    "locktime": 0,
    "vin": [
        {
            "txid": "5897de6bd6027a475eadd57019d4e6872c396d0716c4875a5f1a6fcfdf385c1f",
            "vout": 0,
            "scriptSig": {
                "asm": "",
                "hex": ""
            },
            "sequence": 4294967293
        }
    ],
    "vout": [
        {
            "value": 0.18000000,
            "n": 0,
            "scriptPubKey": {
                "asm": "OP_DUP OP_HASH160 65a16059864a2fdbc7c99a4723a8395bc6f188eb OP_EQUALVERIFY OP_CHECKSIG",
                "hex": "76a91465a16059864a2fdbc7c99a4723a8395bc6f188eb88ac",
                "reqSigs": 1,
                "type": "pubkeyhash",
                "addresses": [
                    "MHAXoRyxuYLNNME44GgeMpdYrguTbbR9xu"
                ]
            }
        }
    ],
    "hex": "02000000011f5c38dfcf6f1a5f5a87c416076d392c87e6d41970d5ad5e477a02d66bde97580000000000fdffffff0180a81201000000001976a91465a16059864a2fdbc7c99a4723a8395bc6f188eb88ac00000000"
}
